:1000000000000120D1090000F9090000FB090000EF
:10001000FD090000FF090000010A000000000000C7
:10002000000000000000000000000000030A0000C3
:10003000050A000000000000070A0000090A00008D
:100040000B0A00000B0A0000790E00000B0A0000EA
:100050000B0A00000B0A00000B0A00000B0A00004C
:100060000B0A00000B0A00000B0A00000B0A00003C
:100070000B0A00000B0A00000B0A00000B0A00002C
:100080000B0A0000011200000B0A00000B0A00001E
:100090000B0A00000B0A00000B0A00000B0A00000C
:1000A0000B0A00000B0A00000B0A00000B0A0000FC
:1000B0000B0A00000B0A0000000000000000000016
:1000C0000B0A00000B0A00000B0A00000B0A0000DC
:1000D0000B0A00000B0A00000B0A000000000000E1
:1000E0000000000000000000000000000000000010
:1000F0000000000000000000000000000000000000
:1001000000000000000000000000000000000000EF
:1001100000000000000000000000000000000000DF
:1004000010B5054C237833B9044B13B10448AFF34E
:1004100000800123237010BD800000200000000038
:10042000AC1D000008B5034B1BB103490348AFF3F3
:10043000008008BD0000000084000020AC1D00000A
:10044000154B002B08BF134B9D46A3F5803A0021A6
:100450008B460F461348144A121A01F023FC0F4B27
:10046000002B00D098470E4B002B00D0984700205F
:10047000002104000D000D48002802D00C48AFF305
:10048000008001F0EBFB2000290000F00DFD01F0E1
:10049000D1FB00BF000008000000012000000000A8
:1004A000000000008000002010010020000000007B
:1004B000000000004E4B70B518684E4C4E4E00F0D8
:1004C00065FDC0F5FA72B0F5FA7F2060326080F207
:1004D00088804A4D0121286800F024FE30680028F9
:1004E0003BD0013800BF00BF00BF00BF00BF00BF4E
:1004F00000BF00BF00BF00BF00BF00BF00BF00BF04
:1005000000BF00BF00BF00BF00BF00BF00BF00BFF3
:1005100000BF00BF00BF00BF00BF00BF00BF00BFE3
:1005200000BF00BF00BF00BF00BF00BF00BF00BFD3
:1005300000BF00BF00BF00BF00BF00BF00BF00BFC3
:1005400000BF00BF00BF00BF00BF00BF00BF00BFB3
:1005500000BF00BF00BF00BFC3D12868002100F06A
:10056000E1FD206800283BD0013800BF00BF00BF7C
:1005700000BF00BF00BF00BF00BF00BF00BF00BF83
:1005800000BF00BF00BF00BF00BF00BF00BF00BF73
:1005900000BF00BF00BF00BF00BF00BF00BF00BF63
:1005A00000BF00BF00BF00BF00BF00BF00BF00BF53
:1005B00000BF00BF00BF00BF00BF00BF00BF00BF43
:1005C00000BF00BF00BF00BF00BF00BF00BF00BF33
:1005D00000BF00BF00BF00BF00BF00BF00BFC3D14E
:1005E00070BDFDD000210220BDE8704000F09ABD32
:1005F000000000209C000020A0000020040000203B
:10060000F7B500F065FF00222A4B2B4C00F0CAFF23
:1006100001F0C0FADFED297A07EE100A67EE277ABB
:10062000022517EE900A00F065FF009502460B4682
:10063000064620460F4600F0C5F92149204600F045
:10064000BFF800221F4B3046394600F0F3FD002270
:100650001D4B00F0A7FF01F09DFA00F04BFF009545
:1006600002460B46064620460F4600F0ABF91749F6
:10067000204600F0A5F80022154B3046394600F020
:1006800091FF00220B4B01F0B7F80022114B00F054
:10069000D3FD01F07FFA00F02DFF009502460B46D6
:1006A000204600F08FF90C49204603B0BDE8F04029
:1006B00000F086B800001440A40000200000803A3A
:1006C000E01C00000000E03F00005940E71C000073
:1006D0000000224000004040F21C000008B5152038
:1006E00000F054FCFFF78CFFFFF7E4FE0F2000F052
:1006F0004DFCB0F5167F34BF012100210720BDE875
:10070000084000F00FBD08B5FFF7D4FEBDE8084073
:10071000FFF7E4BF08B54FF416510D4800F068FA32
:100720000121072000F0D6FC00210F2000F0D2FCB0
:100730000021152000F0CEFC064B0121186800F0C6
:10074000C9FC054B00211868BDE8084000F0C2BC98
:10075000A400002004000020000000202DE9F0414A
:1007600006460D4601EB02080C464445A4EB05077E
:1007700007D0336814F8011B1B68304698470028DF
:10078000F3D13846BDE8F08170B5044608460D4601
:1007900001F090FA23680246294620465B68BDE8CE
:1007A0007040184709B1FFF7EFBF0846704703686C
:1007B0001B6818470149FFF7E7BF00BF0B1D00008A
:1007C00038B50546FFF7EEFF04462846FFF7F2FF6F
:1007D000204438BD70B58AB00D460AA9002301F83F
:1007E000043D012A98BF0A22B5FBF2F402FB14561D
:1007F000F3B2092E94BF30333733DBB2254601F80C
:10080000013D002CF0D1FFF7CDFF0AB070BD2DE9FE
:10081000F04107460E4615462AB90368C9B21B685F
:10082000BDE8F04118470A2A05D1002905DBBDE8DB
:10083000F041FFF7CFBFD2B2F9E72D21FFF7B7FFA5
:100840002A46044671423846FFF7C4FF2044BDE8FB
:10085000F08100002DE9F84F19460646104614466F
:100860001D469DF8287001F037F928B14C493046F3
:10087000BDE8F84FFFF788BF25F000494FF0FF3281
:10088000484B2046494601F027F948B94FF0FF325E
:10089000444B2046494601F001F908B94249E6E7D0
:1008A0004FF06042414B2046294601F00BF908B158
:1008B0003F49DCE74FF060423E4B2046294601F0BD
:1008C000E3F80028F4D1002200232046294601F055
:1008D000DBF8D0B12D213046FFF769FF05F1004369
:1008E00082461D463449DFF8D8904FF0000B0020B7
:1008F0004FF000085FFA8BF39F4208D942464B46FF
:1009000000F07AFF0BF1010BF4E78246EAE722469A
:100910002B4600F091FC0D46044601F01BF90A221B
:10092000014680463046FFF755FF8244A7B3404654
:1009300000F0BEFD02460B462046294600F07AFC38
:1009400004460D4630461D49DFF87490FFF71CFF42
:100950004FF000088244013FFFB2FF2F1CD04B46EE
:1009600042462046294600F01DFE0D46044601F091
:10097000C9F80A22014683463046FFF748FF824401
:10098000584600F0A5FD02460B462046294600F0D9
:1009900051FC04460D46DEE75046BDE8F88F00BF27
:1009A000FD1C0000FFFFEF7F011D0000FFFFEF4176
:1009B000051D0000FFFFEFC10000E03F091D000022
:1009C000000024409DF800100091FFF743BF000095
:1009D0000649074A074B9B1A03DD043BC858D05011
:1009E000FBDC00F04DF8FFF72BFD0000B81D000008
:1009F0000000002080000020FEE7FEE7FEE7FEE7A3
:100A0000FEE7FEE7FEE7FEE7FEE7FEE7094B1B78A1
:100A1000062B0CD1084B1B681A0708D1074B186826
:100A200000F0F000A0F13003584258417047002018
:100A3000704700BFE00F00F0E40F00F0E80F00F097
:100A40000C4B1B78062B10D10B4B1B681A070CD1D3
:100A50000A4B186800F0F003302B08D000F0E000DB
:100A6000A0F14003584258417047002070470120D0
:100A7000704700BFE00F00F0E40F00F0E80F00F057
:100A800008B5FFF7C3FF10B14A4B4B4A1A60FFF796
:100A9000D7FF28B1494B4A4A1B68C3F3423313605E
:100AA000FFF7B4FF20B1474AD36823F08073D360C7
:100AB000FFF7C6FF40B14FF080430022C3F80C217E
:100AC000C3F81021C3F83825FFF7A0FF10B13E4B43
:100AD00003221A60FFF79AFF40B13C4B05221A60CF
:100AE00001229A6700229A603F225A60384B1B7895
:100AF000062B50D1374B1B681B074CD1364B1B685C
:100B000003F0F003502B46D14FF08052334BD2F814
:100B10000414C3F82015D2F80814C3F82415D2F829
:100B20000C14C3F82815D2F81014C3F82C15D2F8F9
:100B30001414C3F83015D2F81814C3F83415D2F8C9
:100B40001C14C3F84015D2F82014C3F84415D2F889
:100B50002414C3F84815D2F82814C3F84C15D2F859
:100B60002C14C3F85015D2F83014C3F85415D2F829
:100B70003414C3F86015D2F83814C3F86415D2F8E9
:100B80003C14C3F86815D2F84014C3F86C15D2F8B9
:100B90004424C3F87025124AD2F8883043F4700315
:100BA000C2F88830BFF34F8FBFF36F8F0D4B0E4AE3
:100BB0001A6008BD74C007400DF0ADBA44020010C1
:100BC0003C050040F0ED00E0A0050040105600405C
:100BD000E00F00F0E40F00F0E80F00F000C000406C
:100BE00000ED00E0080000200090D00301207047D5
:100BF00003681322DB69184770470369C3F81C15A3
:100C00000369D3F81C21002AFBD00022C3F81C2161
:100C10000120704710B490F95C30144C590901223E
:100C2000203103F01F0302FA03F344F82130036973
:100C30005DF8044B0421C3F8081303695A60036983
:100C4000DA6003690022C3F8002502694FF0FF3320
:100C5000C2F80C350269C2F814350269C2F80835C9
:100C600002691430C2F8103500F082BA00E100E0E9
:100C7000143000F08FBA143000F092BA143000F043
:100C80007BBA0000036990F85E2010B5C3F80C250C
:100C9000036990F85D20C3F8142590F8612003697A
:100CA000012A01BF90F85F40C3F81045036990F82E
:100CB000604006BFC3F8084503690022B1F5966F8E
:100CC000C3F86C2569D9B1F5166F69D9B1F5965F8E
:100CD00069D9B1F5165F68D9B1F5615F67D9B1F52A
:100CE000964F66D9B1F5E14F65D9B1F5164F64D984
:100CF000B1F5614F64D9B1F5963F64D9B1F5E13FE3
:100D000063D9B1F5613F63D9364B994263D9B1F5E7
:100D1000E12F63D9B1F5612F94BF4FF070634FF0AD
:100D200080530269C2F8243503690422C3F8002500
:100D300001690023C1F808310169C1F81C3101695A
:100D400001230B6001698B600169C1F8042390F9EC
:100D50005C20510902F01F0293406031224A42F8A0
:100D6000213090F95C30002BBDBF03F00F0302F679
:100D7000FC32D2189B18B5BF60236022137683F82B
:100D8000002390F95C300122590903F01F0302FA95
:100D900003F3154A42F8213010BD4FF49E23C0E7FB
:100DA0004FF41D23BDE7114BBBE7114BB9E7114BC6
:100DB000B7E7114BB5E7114BB3E74FF41D03B0E7AD
:100DC0004FF46B03ADE70E4BABE74FF0EB73A8E7C7
:100DD0004FF06C73A5E74FF08063A2E74FF0E86334
:100DE0009FE700BF90D0030000E100E000B01300D7
:100DF0000050270000F03A0000A04E0000C075002F
:100E000000903A012DE9F0411E4600254FF47A7317
:100E1000C0E901530D4B044640F8143B1746884681
:100E200000F092F90A4AC4F8108084F85C7052F815
:100E3000263084F85D309DF8183052F8233084F85D
:100E40005E3084F861502046BDE8F081181D000036
:100E5000401D000010B50369D3F8082104464AB1CB
:100E6000D3F818151430C9B200F077F923690022BD
:100E7000C3F8082110BD00000148FFF7EBBF00BF19
:100E8000A400002007B51923009302221823034968
:100E90000348FFF7B7FF03B05DF804FB00200040F4
:100EA000A40000207047000008B500F011F8FFF71B
:100EB000F9FF012000F096F9FFF72CFC034CFFF737
:100EC00022FC002CFBD0AFF30080F8E7000000000C
:100ED0002A4BE02283F811234FF40032C3F880211B
:100EE0001A604FF080430122C3F818259A6003F579
:100EF00088330021C3F808150221C3F80413C3F88E
:100F000044131A604FF01023D3F80022002A03DBA9
:100F1000D3F80432002B2FDA194B0122C3F8042531
:100F2000D3F80024002AFBD04FF010221521C2F87C
:100F30000012D3F80024002AFBD04FF01023152212
:100F4000C3F804220E4B1A46D3F800140029FBD034
:100F50000021C3F80415D2F80034002BFBD0BFF3F6
:100F60004F8F0849084BCA6802F4E0621343CB6014
:100F7000BFF34F8F00BFFDE7704700BF00E100E007
:100F800000E0014000ED00E00400FA05192837B543
:100F90000CD84B4B53F82030052B00F0828007D83B
:100FA000032B12D07BD8022B00F08180002074E04C
:100FB0001D2B78D003D81C2BF8D1052206E01E2B60
:100FC00073D01F2BF2D1082200E002223D4B19689A
:100FD00008296EDD0A296FDD0D29B5BF0C240E240A
:100FE000022303233848C0F8F0350123C0F8003548
:100FF00000200546030103F1804303F5E04301307F
:101000000828C3F81455C3F81055F3D12F4B1868AE
:101010002F4B1B6800021B0303F4805300F4E060B5
:101020001843294BC3F81805C3F81425C3F8102535
:101030000DF10602C3F82C260122C3F830261A60EF
:10104000D3F80021002AFBD00022C3F8002101229E
:101050005A601D4B1A46D3F804010028FBD000202B
:10106000C3F8040101209860D2F81431002BFBD0A2
:101070000023C2F81431BDF906209A42124AB8BFC3
:10108000ADF80630A142C2F80035BDF9060004D023
:1010900035BF611A091BC840884003B030BD032228
:1010A00094E7042292E7062290E707228EE70122C6
:1010B0008CE70824002395E70A24012392E700BF68
:1010C000401D00000C0000200070004010000020B7
:1010D0000801002019280FD8114B53F8203003299C
:1010E0000AD8DFE801F002160A1003F5E0734FF0AA
:1010F000A042002142F82310704703F5E0734FF03F
:10110000A0420C21F6E703F5E0734FF0A042042162
:10111000F0E703F5E0734FF0A0420321EAE700BFD8
:10112000401D000019280CD8064B53F8202001233D
:1011300093404FF0A04211B9C2F80C357047C2F885
:1011400008357047401D000008B54022002100F01E
:10115000A9FD0022C0E9102208BD026C10B5531C85
:10116000446C03F03F039C421CBF8154036410BDD8
:101170000023C0E910337047D0E9102393421FBF0A
:10118000C25C013303F03F03436414BF10464FF0C9
:10119000FF307047D0E91030181A48BF4030704710
:1011A000D0E91023934214BFC05C4FF0FF3070476A
:1011B0000A4B19680A4B30B5D3F804050C060D0A22
:1011C00044EA00024FF47A712B46A2FB014501FB71
:1011D0000355E00B40EA454030BD00BF0C01002044
:1011E0000010014038B5044648B1FFF7E1FF05465D
:1011F00000F01AF8FFF7DCFF401BA042F8D338BD1F
:10120000074B0022C3F8042182B0D3F80431054A09
:101210000193019B13680133DBB2136002B0704786
:10122000001001400C0100207047000081F00041D7
:1012300002E000BF83F0004330B54FEA41044FEABB
:10124000430594EA050F08BF90EA020F1FBF54EA56
:10125000000C55EA020C7FEA645C7FEA655C00F0F2
:10126000E2804FEA5454D4EB5555B8BF6D420CDDC3
:101270002C4480EA020281EA030382EA000083EA46
:10128000010180EA020281EA0303362D88BF30BDE6
:1012900011F0004F4FEA01314FF4801C4CEA11313C
:1012A00002D0404261EB410113F0004F4FEA03339B
:1012B0004CEA133302D0524263EB430394EA050F26
:1012C00000F0A780A4F10104D5F1200E0DDB02FA95
:1012D0000EFC22FA05F2801841F1000103FA0EF229
:1012E000801843FA05F359410EE0A5F120050EF1EF
:1012F000200E012A03FA0EFC28BF4CF0020C43FA20
:1013000005F3C01851EBE37101F0004507D54FF02C
:10131000000EDCF1000C7EEB00006EEB0101B1F57C
:10132000801F1BD3B1F5001F0CD349085FEA3000C2
:101330004FEA3C0C04F101044FEA445212F5800FCD
:1013400080F09A80BCF1004F08BF5FEA500C50F16A
:10135000000041EB045141EA050130BD5FEA4C0C4D
:10136000404141EB010111F4801FA4F10104E9D1D6
:1013700091F0000F04BF01460020B1FA81F308BFCD
:101380002033A3F10B03B3F120020CDA0C3208DD99
:1013900002F1140CC2F10C0201FA0CF021FA02F174
:1013A0000CE002F11402D8BFC2F1200C01FA02F1E4
:1013B00020FA0CFCDCBF41EA0C019040E41AA2BF09
:1013C00001EB0451294330BD6FEA04041F3C1CDAD1
:1013D0000C340EDC04F11404C4F1200220FA04F0F1
:1013E00001FA02F340EA030021FA04F345EA03019B
:1013F00030BDC4F10C04C4F1200220FA02F001FA5D
:1014000004F340EA0300294630BD21FA04F02946DE
:1014100030BD94F0000F83F4801306BF81F4801177
:101420000134013D4EE77FEA645C18BF7FEA655CEA
:1014300029D094EA050F08BF90EA020F05D054EABC
:10144000000C04BF1946104630BD91EA030F1EBFC1
:101450000021002030BD5FEA545C05D140004941C5
:1014600028BF41F0004130BD14F580043CBF01F5B8
:10147000801130BD01F0004545F0FE4141F470019E
:101480004FF0000030BD7FEA645C1ABF1946104679
:101490007FEA655C1CBF0B46024650EA013406BF7A
:1014A00052EA033591EA030F41F4002130BD00BF39
:1014B00090F0000F04BF0021704730B54FF48064F6
:1014C00004F132044FF000054FF0000150E700BF77
:1014D00090F0000F04BF0021704730B54FF48064D6
:1014E00004F1320410F0004548BF40424FF00001C3
:1014F0003EE700BF42004FEAE2014FEA31014FEA06
:1015000002701FBF12F07F4393F07F4F81F0605154
:10151000704732F07F4208BF704793F07F4F04BF9F
:1015200041F40021704730B54FF4607401F000457C
:1015300021F000411CE700BF50EA010208BF7047DC
:1015400030B54FF000050AE050EA010208BF7047CD
:1015500030B511F0004502D5404261EB41014FF436
:10156000806404F132045FEA915C3FF4D8AE4FF03E
:1015700003025FEADC0C18BF03325FEADC0C18BF21
:10158000033202EBDC02C2F1200300FA03FC20FA72
:1015900002F001FA03FE40EA0E0021FA02F11444BF
:1015A000BDE600BF70B54FF0FF0C4CF4E06C1CEAD8
:1015B00011541DBF1CEA135594EA0C0F95EA0C0F49
:1015C00000F0DEF82C4481EA030621EA4C5123EABC
:1015D0004C5350EA013518BF52EA033541F48011EB
:1015E00043F4801338D0A0FB02CE4FF00005E1FB9E
:1015F00002E506F00042E0FB03E54FF00006E1FBE8
:1016000003569CF0000F18BF4EF0010EA4F1FF042A
:10161000B6F5007F64F5407404D25FEA4E0E6D416A
:1016200046EB060642EAC62141EA55514FEAC5207B
:1016300040EA5E504FEACE2EB4F1FD0C88BFBCF5F7
:10164000E06F1ED8BEF1004F08BF5FEA500E50F1A8
:10165000000041EB045170BD06F0004646EA01016E
:1016600040EA020081EA0301B4EB5C04C2BFD4EBA0
:101670000C0541EA045170BD41F480114FF0000E99
:10168000013C00F3AB8014F1360FDEBF002001F007
:10169000004170BDC4F10004203C35DA0C341BDC81
:1016A00004F11404C4F1200500FA05F320FA04F053
:1016B00001FA05F240EA020001F0004221F0004187
:1016C00010EBD37021FA04F642EB06015EEA430EFA
:1016D00008BF20EAD37070BDC4F10C04C4F120052A
:1016E00000FA04F320FA05F001FA04F240EA0200DD
:1016F00001F0004110EBD37041F100015EEA430EAE
:1017000008BF20EAD37070BDC4F1200500FA05F2CD
:101710004EEA020E20FA04F301FA05F243EA02034C
:1017200021FA04F001F0004121FA04F220EA02005B
:1017300000EBD3705EEA430E08BF20EAD37070BDA1
:1017400094F0000F0FD101F00046400041EB010181
:1017500011F4801F08BF013CF7D041EA060195F063
:10176000000F18BF704703F00046520043EB03031D
:1017700013F4801F08BF013DF7D043EA060370470A
:1017800094EA0C0F0CEA135518BF95EA0C0F0CD015
:1017900050EA410618BF52EA4306D1D181EA03015B
:1017A00001F000414FF0000070BD50EA410606BF55
:1017B0001046194652EA430619D094EA0C0F02D19A
:1017C00050EA013613D195EA0C0F05D152EA0336DF
:1017D0001CBF104619460AD181EA030101F00041FD
:1017E00041F0FE4141F470014FF0000070BD41F046
:1017F000FE4141F4780170BD70B54FF0FF0C4CF420
:10180000E06C1CEA11541DBF1CEA135594EA0C0F3E
:1018100095EA0C0F00F0A7F8A4EB050481EA030E8B
:1018200052EA03354FEA013100F088804FEA033372
:101830004FF0805545EA131343EA12634FEA022240
:1018400045EA111545EA10654FEA00260EF0004101
:101850009D4208BF964244F1FD0404F5407402D253
:101860005B084FEA3202B61A65EB03055B084FEAE4
:1018700032024FF480104FF4002CB6EB020E75EBE1
:10188000030E22BFB61A754640EA0C005B084FEA09
:101890003202B6EB020E75EB030E22BFB61A754686
:1018A00040EA5C005B084FEA3202B6EB020E75EBD1
:1018B000030E22BFB61A754640EA9C005B084FEA49
:1018C0003202B6EB020E75EB030E22BFB61A754656
:1018D00040EADC0055EA060E18D04FEA051545EA45
:1018E00016754FEA06164FEAC30343EA52734FEAEE
:1018F000C2025FEA1C1CC0D111F4801F0BD141EA67
:1019000000014FF000004FF0004CB6E711F4801FCB
:1019100004BF01430020B4F1FD0C88BFBCF5E06FAB
:101920003FF6AFAEB5EB030C04BFB6EB020C5FEABB
:10193000500C50F1000041EB045170BD0EF0004E10
:101940004EEA113114EB5C04C2BFD4EB0C0541EA42
:10195000045170BD41F480114FF0000E013C90E63F
:1019600045EA060E8DE60CEA135594EA0C0F08BF03
:1019700095EA0C0F3FF43BAF94EA0C0F0AD150EA02
:1019800001347FF434AF95EA0C0F7FF425AF104695
:1019900019462CE795EA0C0F06D152EA03353FF4BD
:1019A000FDAE1046194622E750EA410618BF52EA3A
:1019B00043067FF4C5AE50EA41047FF40DAF52EA0E
:1019C00043057FF4EBAE12E74FF0FF3C06E000BFAB
:1019D0004FF0010C02E000BF4FF0010C4DF804CDB8
:1019E0004FEA410C7FEA6C5C4FEA430C18BF7FEA78
:1019F0006C5C1BD001B050EA410C0CBF52EA430CA6
:101A000091EA030F02BF90EA020F0020704710F125
:101A1000000F91EA030F58BF994208BF90422CBFB4
:101A2000D8176FEAE37040F0010070474FEA410CAD
:101A30007FEA6C5C02D150EA013C07D14FEA430CCB
:101A40007FEA6C5CD6D152EA033CD3D05DF8040B3C
:101A5000704700BF8446104662468C46194663466E
:101A600000E000BF01B5FFF7B7FF002848BF10F145
:101A7000000F01BD4DF808EDFFF7F4FF0CBF01208A
:101A800000205DF808FB00BF4DF808EDFFF7EAFF06
:101A900034BF012000205DF808FB00BF4DF808EDC1
:101AA000FFF7E0FF94BF012000205DF808FB00BFB6
:101AB0004DF808EDFFF7CEFF94BF012000205DF840
:101AC00008FB00BF4DF808EDFFF7C4FF34BF01204D
:101AD00000205DF808FB00BF4FEA410C7FEA6C5C18
:101AE00002D150EA013C0AD14FEA430C7FEA6C5C18
:101AF00002D152EA033C02D14FF0000070474FF090
:101B0000010070474FEA410212F5001215D211D5BB
:101B10006FF47873B3EB625212D94FEAC12343F0EA
:101B2000004343EA505311F0004F23FA02F018BF6C
:101B3000404270474FF00000704750EA013005D135
:101B400011F0004008BF6FF0004070474FF00000F8
:101B5000704700BF4A0011D212F5001211D20DD504
:101B60006FF47873B3EB62520ED44FEAC12343F0A3
:101B7000004343EA505323FA02F070474FF000004D
:101B8000704750EA013002D14FF0FF3070474FF0FC
:101B9000000070474FEA4102B2F1E04324BFB3F5C1
:101BA000001CDCF1FE5C0DD901F0004C4FEAC002D4
:101BB0004CEA5070B2F1004F40EB830008BF20F0B8
:101BC0000100704711F0804F21D113F13872BCBF72
:101BD00001F00040704741F480114FEA5252C2F1C7
:101BE0001802C2F1200C10FA0CF320FA02F018BF10
:101BF00040F001004FEAC1234FEAD32303FA0CFC63
:101C000040EA0C0023FA02F34FEA4303CCE77FEAF1
:101C1000625307D150EA01331EBF4FF0FE4040F43B
:101C20004000704701F0004040F0FE4040F40000EA
:101C3000704700BF08B5074B044613B10021AFF34E
:101C40000080054B1868836A03B19847204600F06E
:101C500039F800BF00000000A81D000070B50D4E4F
:101C60000D4CA41BA4100025A54209D10B4E0C4C11
:101C700000F02AF8A41BA4100025A54205D170BDD0
:101C800056F8253098470135EEE756F82530984745
:101C90000135F2E774000020740000207400002079
:101CA0007C00002002440346934200D1704703F8B1
:101CB000011BF9E7034613F8012B002AFBD1181A80
:101CC00001387047FEE700BFF8B500BFF8BC08BC9C
:101CD0009E467047F8B500BFF8BC08BC9E467047EA
:101CE00020766F6C7473002064656772656573207D
:101CF000430020646567726565732046006E616EFF
:101D000000696E66006F7666002E000D0A00000006
:101D10000000000000000000FB0B00005D07000059
:101D2000710C00007D0C0000770C0000F90B000026
:101D3000F10B0000850C0000150C0000ED0B0000FD
:101D40000B0000000C0000000D0000000E00000061
:101D50000F00000010000000110000001200000041
:101D6000130000001400000016000000170000001F
:101D7000180000001900000003000000040000002B
:101D80001C0000001D0000001E0000001F000000DD
:101D900005000000020000001A0000001B00000007
:101DA00008000000060000001400002000000000F1
:081DB00090E6FF7F0100000036
:101DB8000E000000020000000090D0030A0000009E
:101DC800010000000000000000000000000000000A
:101DD80000000000000000000000000000000000FB
:101DE80000000000000000000000000000000000EB
:101DF80000000000000000000000000000000000DB
:101E080000000000000000000000000000000000CA
:101E180000000000000000000000000000000000BA
:101E28000000000025040000850E000001040000E9
:04000003000009D11F
:00000001FF
